S0170000536572766F5F61746D6567613332382E7372656393
S11300000C9434000C943E000C943E000C943E007E
S11300100C943E000C943E000C943E000C943E0064
S11300200C943E000C943E000C943E000C943E0054
S11300300C943E000C943E000C943E000C943E0044
S11300400C943E000C943E000C943E000C943E0034
S11300500C943E000C943E000C943E000C943E0024
S11300600C943E000C943E0011241FBECFEFD8E048
S1130070DEBFCDBF0E9440000C9488000C940000A9
S113008084B1826084B9E0E8F0E080818268808392
S1130090E1E8F0E080818A6180838FE39CE99093BA
S11300A0870080938600E8E8F0E087EB9BE091838B
S11300B080832FEF39E648E1215030404040E1F79A
S11300C000C000002FEB32E1318320832FEF39E6AB
S11300D048E1215030404040E1F700C000009183E6
S11300E080838FEF99E628E1815090402040E1F72A
S11300F000C000008FEC97E0918380833FEF49E6D6
S113010088E1315040408040E1F700C00000CBCF8F
S1070110F894FFCF8D
S9030000FC
